{
    "abi": [
        {
            "type": "constructor",
            "inputs": [
                {
                    "name": "_permissionController",
                    "type": "address",
                    "internalType": "address"
                },
                {
                    "name": "_reexecutionEndpoint",
                    "type": "address",
                    "internalType": "address"
                },
                {
                    "name": "_reservationRegistry",
                    "type": "address",
                    "internalType": "address"
                }
            ],
            "stateMutability": "nonpayable"
        },
        {
            "type": "function",
            "name": "CHALLENGE_WINDOW",
            "inputs": [],
            "outputs": [
                {
                    "name": "",
                    "type": "uint64",
                    "internalType": "uint64"
                }
            ],
            "stateMutability": "view"
        },
        {
            "type": "function",
            "name": "idCounter",
            "inputs": [],
            "outputs": [
                {
                    "name": "",
                    "type": "uint256",
                    "internalType": "uint256"
                }
            ],
            "stateMutability": "view"
        },
        {
            "type": "function",
            "name": "isAllowlistedComputer",
            "inputs": [
                {
                    "name": "computer",
                    "type": "address",
                    "internalType": "address"
                }
            ],
            "outputs": [
                {
                    "name": "",
                    "type": "bool",
                    "internalType": "bool"
                }
            ],
            "stateMutability": "view"
        },
        {
            "type": "function",
            "name": "metaChallenges",
            "inputs": [
                {
                    "name": "",
                    "type": "uint256",
                    "internalType": "uint256"
                }
            ],
            "outputs": [
                {
                    "name": "challenger",
                    "type": "address",
                    "internalType": "address"
                },
                {
                    "name": "computeId",
                    "type": "uint256",
                    "internalType": "uint256"
                },
                {
                    "name": "subJobId",
                    "type": "uint32",
                    "internalType": "uint32"
                },
                {
                    "name": "certificate",
                    "type": "bytes",
                    "internalType": "bytes"
                },
                {
                    "name": "timestamp",
                    "type": "uint256",
                    "internalType": "uint256"
                },
                {
                    "name": "requestIndex",
                    "type": "uint256",
                    "internalType": "uint256"
                }
            ],
            "stateMutability": "view"
        },
        {
            "type": "function",
            "name": "metaComputeRequests",
            "inputs": [
                {
                    "name": "",
                    "type": "uint256",
                    "internalType": "uint256"
                }
            ],
            "outputs": [
                {
                    "name": "user",
                    "type": "address",
                    "internalType": "address"
                },
                {
                    "name": "id",
                    "type": "uint256",
                    "internalType": "uint256"
                },
                {
                    "name": "jobDescriptionId",
                    "type": "bytes32",
                    "internalType": "bytes32"
                },
                {
                    "name": "timestamp",
                    "type": "uint256",
                    "internalType": "uint256"
                }
            ],
            "stateMutability": "view"
        },
        {
            "type": "function",
            "name": "metaComputeResults",
            "inputs": [
                {
                    "name": "",
                    "type": "uint256",
                    "internalType": "uint256"
                }
            ],
            "outputs": [
                {
                    "name": "computer",
                    "type": "address",
                    "internalType": "address"
                },
                {
                    "name": "computeId",
                    "type": "uint256",
                    "internalType": "uint256"
                },
                {
                    "name": "metaCommitment",
                    "type": "bytes32",
                    "internalType": "bytes32"
                },
                {
                    "name": "resultsId",
                    "type": "bytes32",
                    "internalType": "bytes32"
                },
                {
                    "name": "timestamp",
                    "type": "uint256",
                    "internalType": "uint256"
                }
            ],
            "stateMutability": "view"
        },
        {
            "type": "function",
            "name": "permissionController",
            "inputs": [],
            "outputs": [
                {
                    "name": "",
                    "type": "address",
                    "internalType": "address"
                }
            ],
            "stateMutability": "view"
        },
        {
            "type": "function",
            "name": "reexecutionEndpoint",
            "inputs": [],
            "outputs": [
                {
                    "name": "",
                    "type": "address",
                    "internalType": "address"
                }
            ],
            "stateMutability": "view"
        },
        {
            "type": "function",
            "name": "reservationRegistry",
            "inputs": [],
            "outputs": [
                {
                    "name": "",
                    "type": "address",
                    "internalType": "address"
                }
            ],
            "stateMutability": "view"
        },
        {
            "type": "function",
            "name": "setAppointee",
            "inputs": [
                {
                    "name": "appointee",
                    "type": "address",
                    "internalType": "address"
                },
                {
                    "name": "target",
                    "type": "address",
                    "internalType": "address"
                },
                {
                    "name": "selector",
                    "type": "bytes4",
                    "internalType": "bytes4"
                }
            ],
            "outputs": [],
            "stateMutability": "nonpayable"
        },
        {
            "type": "function",
            "name": "setImageId",
            "inputs": [
                {
                    "name": "_imageId",
                    "type": "uint32",
                    "internalType": "uint32"
                }
            ],
            "outputs": [],
            "stateMutability": "nonpayable"
        },
        {
            "type": "function",
            "name": "submitMetaChallenge",
            "inputs": [
                {
                    "name": "computeId",
                    "type": "uint256",
                    "internalType": "uint256"
                },
                {
                    "name": "subJobId",
                    "type": "uint32",
                    "internalType": "uint32"
                },
                {
                    "name": "certificate",
                    "type": "bytes",
                    "internalType": "bytes"
                }
            ],
            "outputs": [
                {
                    "name": "",
                    "type": "bool",
                    "internalType": "bool"
                }
            ],
            "stateMutability": "nonpayable"
        },
        {
            "type": "function",
            "name": "submitMetaComputeRequest",
            "inputs": [
                {
                    "name": "jobDescriptionId",
                    "type": "bytes32",
                    "internalType": "bytes32"
                }
            ],
            "outputs": [
                {
                    "name": "computeId",
                    "type": "uint256",
                    "internalType": "uint256"
                }
            ],
            "stateMutability": "nonpayable"
        },
        {
            "type": "function",
            "name": "submitMetaComputeResult",
            "inputs": [
                {
                    "name": "computeId",
                    "type": "uint256",
                    "internalType": "uint256"
                },
                {
                    "name": "metaCommitment",
                    "type": "bytes32",
                    "internalType": "bytes32"
                },
                {
                    "name": "resultsId",
                    "type": "bytes32",
                    "internalType": "bytes32"
                }
            ],
            "outputs": [
                {
                    "name": "",
                    "type": "bool",
                    "internalType": "bool"
                }
            ],
            "stateMutability": "nonpayable"
        },
        {
            "type": "function",
            "name": "updateChallengeWindow",
            "inputs": [
                {
                    "name": "challengeWindow",
                    "type": "uint64",
                    "internalType": "uint64"
                }
            ],
            "outputs": [],
            "stateMutability": "nonpayable"
        },
        {
            "type": "event",
            "name": "MetaChallengeEvent",
            "inputs": [
                {
                    "name": "computeId",
                    "type": "uint256",
                    "indexed": true,
                    "internalType": "uint256"
                },
                {
                    "name": "subJobId",
                    "type": "uint32",
                    "indexed": false,
                    "internalType": "uint32"
                },
                {
                    "name": "requestIndex",
                    "type": "uint256",
                    "indexed": false,
                    "internalType": "uint256"
                }
            ],
            "anonymous": false
        },
        {
            "type": "event",
            "name": "MetaComputeRequestEvent",
            "inputs": [
                {
                    "name": "computeId",
                    "type": "uint256",
                    "indexed": true,
                    "internalType": "uint256"
                },
                {
                    "name": "jobDescriptionId",
                    "type": "bytes32",
                    "indexed": false,
                    "internalType": "bytes32"
                }
            ],
            "anonymous": false
        },
        {
            "type": "event",
            "name": "MetaComputeResultEvent",
            "inputs": [
                {
                    "name": "computeId",
                    "type": "uint256",
                    "indexed": true,
                    "internalType": "uint256"
                },
                {
                    "name": "commitment",
                    "type": "bytes32",
                    "indexed": false,
                    "internalType": "bytes32"
                },
                {
                    "name": "resultsId",
                    "type": "bytes32",
                    "indexed": false,
                    "internalType": "bytes32"
                }
            ],
            "anonymous": false
        },
        {
            "type": "error",
            "name": "CallerNotWhitelisted",
            "inputs": []
        },
        {
            "type": "error",
            "name": "ChallengeNotFound",
            "inputs": []
        },
        {
            "type": "error",
            "name": "ChallengePeriodExpired",
            "inputs": []
        },
        {
            "type": "error",
            "name": "ComputeRequestNotFound",
            "inputs": []
        },
        {
            "type": "error",
            "name": "ComputeResultAlreadySubmitted",
            "inputs": []
        },
        {
            "type": "error",
            "name": "ComputeResultNotFound",
            "inputs": []
        },
        {
            "type": "error",
            "name": "InvalidReservationForImageId",
            "inputs": []
        }
    ],
    "bytecode": {
        "object": "0x60803461012857601f6110d338819003918201601f19168301916001600160401b0383118484101761012c578084926060946040528339810103126101285761004781610140565b90610060604061005960208401610140565b9201610140565b5f80546001600160401b031916610e101781556001600481905533808352600560209081526040808520805460ff1990811686179091556006835281862080548216861790556007909252808520805490921684179091558354600160401b600160e01b03191691811b600160401b600160e01b03169190911790925580546001600160a01b03199081166001600160a01b039687161790915560028054821694861694909417909355600380549093169390911692909217905551610f7e90816101558239f35b5f80fd5b634e487b7160e01b5f52604160045260245ffd5b51906001600160a01b03821682036101285756fe6080806040526004361015610012575f80fd5b5f905f3560e01c9081631fdb0cfd14610db1575080634468726a14610bfb5780634657e26a14610bd257806395a5659b14610614578063b40308e5146105eb578063c06083eb146105c2578063d62aad291461059b578063d75dec3914610475578063d9e1610114610420578063df71e05b14610307578063e011d73e146102a9578063e5dcb1ad14610176578063eb08ab2814610158578063f976c870146101195763fc2fb0cf146100c3575f80fd5b346101165760203660031901126101165760043567ffffffffffffffff8116809103610114578154604081901c6001600160a01b031633036101105767ffffffffffffffff191617815580f35b8280fd5b505b80fd5b50346101165760203660031901126101165760209060ff906040906001600160a01b03610144610e77565b168152600584522054166040519015158152f35b50346101165780600319360112610116576020600454604051908152f35b503461011657606036600319011261011657600435906024359060443590338152600560205260ff6040822054161561029a57838152600860205260016040822001541561028b578381526009602052600160408220015461027c57916040917fc6c14934eadb38b7455516fd2a0ee0f96055ed17475f259fce0a4cea8905566f93600484519161020683610e8d565b33835260208084018981528785018781526060860187815242608088019081528c865260098552948a9020965187546001600160a01b0319166001600160a01b039190911617875591516001870155516002860155516003850155905191909201558351928352820152a2602060405160018152f35b633f60c7d160e21b8152600490fd5b631220e75360e01b8152600490fd5b638c6e5d7160e01b8152600490fd5b503461011657602036600319011261011657604060a0916004358152600960205220600180831b0381541690600181015490600281015460046003830154920154926040519485526020850152604084015260608301526080820152f35b50346101165760203660031901126101165760043590338152600760205260ff6040822054161561029a57600454916040516080810181811067ffffffffffffffff82111761040c5760409081523382526020828101868152838301858152426060860190815297875260088352838720945185546001600160a01b0319166001600160a01b0391909116178555905160018501555160028401559451600392909201919091556004549051918252919282917fd9cb7f9739d3b3466293b28238d0dbe49a842a2e235c101650c06b471e7456939190a2600181018082116103f85760209250600455604051908152f35b634e487b7160e01b83526011600452602483fd5b634e487b7160e01b84526041600452602484fd5b5034610116576020366003190112610116576040608091600435815260086020522060018060a01b03815416906001810154906003600282015491015491604051938452602084015260408301526060820152f35b5034610116576020366003190112610116576004358152600a6020526040812060018060a01b038154169060018101549263ffffffff60028301541690600383019060405191818154916104c883610edf565b80865292600181169081156105715750600114610530575b505050906104f381610521930382610ebd565b600560048501549401549260405196879687526020870152604086015260c0606086015260c0850190610f17565b91608084015260a08301520390f35b815260208120939250905b808210610557575090915081016020016104f3826105216104e0565b91926001816020925483858801015201910190929161053b565b869550610521969350602092506104f394915060ff191682840152151560051b82010192936104e0565b503461011657806003193601126101165767ffffffffffffffff6020915416604051908152f35b50346101165780600319360112610116576003546040516001600160a01b039091168152602090f35b50346101165780600319360112610116576002546040516001600160a01b039091168152602090f35b503461011657606036600319011261011657600435906024359063ffffffff82168092036101165760443567ffffffffffffffff8111610114573660238201121561011457806004013567ffffffffffffffff8111610bbe5760405191610685601f8301601f191660200184610ebd565b8183523660248383010111610ae4578184926024602093018386013783010152338252600660205260ff60408320541615610baf578382526008602052600160408320015415610ba0578382526009602052600160408320015415610b91578382526009602052600460408320015442034281116103f85767ffffffffffffffff83541610610b825760035460408051634234d4e960e01b815263ffffffff431660048201526001600160a01b03909216919081602481855afa908115610af0578491610b50575b50604051633013ce2960e01b8152602081600481865afa908115610b45579085918291610afb575b5060405163095ea7b360e01b8152600481018590526024810193909352602091839160449183916001600160a01b03165af18015610af057610aa8575b50906020610827939260405190828201888152876040840152604083526107da606084610ebd565b825190208563ffffffff60035460a01c166040519889958694859363eeb1aeff60e01b8552600485015260806024850152846084850152604484015260a0606484015260a4830190610f17565b03925af1928315610a9d578293610a65575b506040519160c0830183811067ffffffffffffffff821117610a51576040908152338452602080850188815285830188815260608701958652426080880190815260a088018981528b8752600a909452938520965187546001600160a01b0319166001600160a01b0391909116178755905160018701555160028601805463ffffffff191663ffffffff9290921691909117905592518051919260038601929167ffffffffffffffff8311610a51576108f28454610edf565b601f8111610a0c575b50602091601f841160011461097f5792807fb82fb2e4cd261047b3f94ac489da3a0eef7f99296a04009a25e64bc35f1ec1ac9a9896936005969360409b999692610974575b50508160011b915f199060031b1c19161790555b5160048401555191015582519182526020820152a2602060405160018152f35b015190505f80610940565b9190601f198416858452828420935b8181106109f45750937fb82fb2e4cd261047b3f94ac489da3a0eef7f99296a04009a25e64bc35f1ec1ac9a989693600596936001938360409d9b98106109dc575b505050811b019055610954565b01515f1960f88460031b161c191690555f80806109cf565b9293602060018192878601518155019501930161098e565b84835260208320601f850160051c81019160208610610a47575b601f0160051c01905b818110610a3c57506108fb565b838155600101610a2f565b9091508190610a26565b634e487b7160e01b82526041600452602482fd5b9092506020813d602011610a95575b81610a8160209383610ebd565b81010312610a915751915f610839565b5f80fd5b3d9150610a74565b6040513d84823e3d90fd5b6020813d602011610ae8575b81610ac160209383610ebd565b81010312610ae457610827939291610ada602092610f3b565b50919293506107b2565b8380fd5b3d9150610ab4565b6040513d86823e3d90fd5b9150506020813d602011610b3d575b81610b1760209383610ebd565b81010312610b3957516001600160a01b0381168103610b395784906044610775565b8480fd5b3d9150610b0a565b6040513d87823e3d90fd5b90506040813d604011610b7a575b81610b6b60409383610ebd565b81010312610ae457515f61074d565b3d9150610b5e565b637222b06b60e11b8252600482fd5b630a9f151f60e11b8252600482fd5b631220e75360e01b8252600482fd5b638c6e5d7160e01b8252600482fd5b634e487b7160e01b83526041600452602483fd5b50346101165780600319360112610116576001546040516001600160a01b039091168152602090f35b50346101165760203660031901126101165760043563ffffffff811680820361011057825460401c6001600160a01b0316330361011057600254604051637076833760e01b815260048101929092526001600160a01b031690602081602481855afa8015610af0578490610d7e575b60a0915060246040518094819363d57763c360e01b835260048301525afa908115610d73578391610cdc575b50516001600160a01b03163003610ccd576003805463ffffffff60a01b191660a09290921b63ffffffff60a01b1691909117905580f35b630255ce4560e21b8252600482fd5b905060a0813d60a011610d6b575b81610cf760a09383610ebd565b810103126101105760405190610d0c82610e8d565b80516001600160a01b0381168103610b3957825260208101516002811015610b3957602083015260408101516040830152606081015163ffffffff81168103610b39576060830152610d6090608001610f3b565b60808201525f610c96565b3d9150610cea565b6040513d85823e3d90fd5b506020813d602011610da9575b81610d9860209383610ebd565b81010312610a915760a09051610c6a565b3d9150610d8b565b905034610a91576060366003190112610a9157610dcc610e77565b6024356001600160a01b03811690819003610a915760443563ffffffff60e01b8116809103610a91575f5460401c6001600160a01b03163303610a91576001546001600160a01b031691823b15610a91575f859360849385938397634a86c03760e11b865230600487015260018060a01b03166024860152604485015260648401525af18015610e6c57610e5e575080f35b610e6a91505f90610ebd565b005b6040513d5f823e3d90fd5b600435906001600160a01b0382168203610a9157565b60a0810190811067ffffffffffffffff821117610ea957604052565b634e487b7160e01b5f52604160045260245ffd5b90601f8019910116810190811067ffffffffffffffff821117610ea957604052565b90600182811c92168015610f0d575b6020831014610ef957565b634e487b7160e01b5f52602260045260245ffd5b91607f1691610eee565b805180835260209291819084018484015e5f828201840152601f01601f1916010190565b51908115158203610a915756fea264697066735822122012f5d7ec5861450752c11b7b1a746c438b31a1418023dae6b5594f9e928a687864736f6c634300081b0033",
        "linkReferences": {}
    },
    "methodIdentifiers": {
        "CHALLENGE_WINDOW()": "d62aad29",
        "idCounter()": "eb08ab28",
        "isAllowlistedComputer(address)": "f976c870",
        "metaChallenges(uint256)": "d75dec39",
        "metaComputeRequests(uint256)": "d9e16101",
        "metaComputeResults(uint256)": "e011d73e",
        "permissionController()": "4657e26a",
        "reexecutionEndpoint()": "c06083eb",
        "reservationRegistry()": "b40308e5",
        "setAppointee(address,address,bytes4)": "1fdb0cfd",
        "setImageId(uint32)": "4468726a",
        "submitMetaChallenge(uint256,uint32,bytes)": "95a5659b",
        "submitMetaComputeRequest(bytes32)": "df71e05b",
        "submitMetaComputeResult(uint256,bytes32,bytes32)": "e5dcb1ad",
        "updateChallengeWindow(uint64)": "fc2fb0cf"
    },
    "id": 165
}