{"abi":[{"type":"function","name":"CHALLENGE_WINDOW","inputs":[],"outputs":[{"name":"","type":"uint64","internalType":"uint64"}],"stateMutability":"view"},{"type":"function","name":"UPGRADE_INTERFACE_VERSION","inputs":[],"outputs":[{"name":"","type":"string","internalType":"string"}],"stateMutability":"view"},{"type":"function","name":"allowlistChallenger","inputs":[{"name":"challenger","type":"address","internalType":"address"}],"outputs":[],"stateMutability":"nonpayable"},{"type":"function","name":"allowlistComputer","inputs":[{"name":"computer","type":"address","internalType":"address"}],"outputs":[],"stateMutability":"nonpayable"},{"type":"function","name":"allowlistUser","inputs":[{"name":"user","type":"address","internalType":"address"}],"outputs":[],"stateMutability":"nonpayable"},{"type":"function","name":"idCounter","inputs":[],"outputs":[{"name":"","type":"uint256","internalType":"uint256"}],"stateMutability":"view"},{"type":"function","name":"initialize","inputs":[],"outputs":[],"stateMutability":"nonpayable"},{"type":"function","name":"isAllowlistedComputer","inputs":[{"name":"computer","type":"address","internalType":"address"}],"outputs":[{"name":"","type":"bool","internalType":"bool"}],"stateMutability":"view"},{"type":"function","name":"metaChallenges","inputs":[{"name":"","type":"uint256","internalType":"uint256"}],"outputs":[{"name":"challenger","type":"address","internalType":"address"},{"name":"computeId","type":"uint256","internalType":"uint256"},{"name":"subJobId","type":"uint32","internalType":"uint32"},{"name":"timestamp","type":"uint256","internalType":"uint256"}],"stateMutability":"view"},{"type":"function","name":"metaComputeRequests","inputs":[{"name":"","type":"uint256","internalType":"uint256"}],"outputs":[{"name":"user","type":"address","internalType":"address"},{"name":"id","type":"uint256","internalType":"uint256"},{"name":"jobDescriptionId","type":"bytes32","internalType":"bytes32"},{"name":"timestamp","type":"uint256","internalType":"uint256"}],"stateMutability":"view"},{"type":"function","name":"metaComputeResults","inputs":[{"name":"","type":"uint256","internalType":"uint256"}],"outputs":[{"name":"computer","type":"address","internalType":"address"},{"name":"computeId","type":"uint256","internalType":"uint256"},{"name":"metaCommitment","type":"bytes32","internalType":"bytes32"},{"name":"resultsId","type":"bytes32","internalType":"bytes32"},{"name":"timestamp","type":"uint256","internalType":"uint256"}],"stateMutability":"view"},{"type":"function","name":"owner","inputs":[],"outputs":[{"name":"","type":"address","internalType":"address"}],"stateMutability":"view"},{"type":"function","name":"proxiableUUID","inputs":[],"outputs":[{"name":"","type":"bytes32","internalType":"bytes32"}],"stateMutability":"view"},{"type":"function","name":"renounceOwnership","inputs":[],"outputs":[],"stateMutability":"nonpayable"},{"type":"function","name":"submitMetaChallenge","inputs":[{"name":"computeId","type":"uint256","internalType":"uint256"},{"name":"subJobId","type":"uint32","internalType":"uint32"}],"outputs":[{"name":"","type":"bool","internalType":"bool"}],"stateMutability":"nonpayable"},{"type":"function","name":"submitMetaComputeRequest","inputs":[{"name":"jobDescriptionId","type":"bytes32","internalType":"bytes32"}],"outputs":[{"name":"computeId","type":"uint256","internalType":"uint256"}],"stateMutability":"nonpayable"},{"type":"function","name":"submitMetaComputeResult","inputs":[{"name":"computeId","type":"uint256","internalType":"uint256"},{"name":"metaCommitment","type":"bytes32","internalType":"bytes32"},{"name":"resultsId","type":"bytes32","internalType":"bytes32"}],"outputs":[{"name":"","type":"bool","internalType":"bool"}],"stateMutability":"nonpayable"},{"type":"function","name":"transferOwnership","inputs":[{"name":"newOwner","type":"address","internalType":"address"}],"outputs":[],"stateMutability":"nonpayable"},{"type":"function","name":"updateChallengeWindow","inputs":[{"name":"challengeWindow","type":"uint64","internalType":"uint64"}],"outputs":[],"stateMutability":"nonpayable"},{"type":"function","name":"upgradeToAndCall","inputs":[{"name":"newImplementation","type":"address","internalType":"address"},{"name":"data","type":"bytes","internalType":"bytes"}],"outputs":[],"stateMutability":"payable"},{"type":"function","name":"verifyScoreProof","inputs":[{"name":"computeId","type":"uint256","internalType":"uint256"},{"name":"scoreBytes","type":"bytes4","internalType":"bytes4"},{"name":"scoreIndex","type":"uint256","internalType":"uint256"},{"name":"scoresTreePath","type":"bytes32[]","internalType":"bytes32[]"},{"name":"scoresTreeRoot","type":"bytes32","internalType":"bytes32"},{"name":"metaIndex","type":"uint256","internalType":"uint256"},{"name":"metaTreePath","type":"bytes32[]","internalType":"bytes32[]"}],"outputs":[{"name":"","type":"bool","internalType":"bool"}],"stateMutability":"view"},{"type":"event","name":"Initialized","inputs":[{"name":"version","type":"uint64","indexed":false,"internalType":"uint64"}],"anonymous":false},{"type":"event","name":"MetaChallengeEvent","inputs":[{"name":"computeId","type":"uint256","indexed":true,"internalType":"uint256"},{"name":"subJobId","type":"uint32","indexed":false,"internalType":"uint32"}],"anonymous":false},{"type":"event","name":"MetaComputeRequestEvent","inputs":[{"name":"computeId","type":"uint256","indexed":true,"internalType":"uint256"},{"name":"jobDescriptionId","type":"bytes32","indexed":false,"internalType":"bytes32"}],"anonymous":false},{"type":"event","name":"MetaComputeResultEvent","inputs":[{"name":"computeId","type":"uint256","indexed":true,"internalType":"uint256"},{"name":"commitment","type":"bytes32","indexed":false,"internalType":"bytes32"},{"name":"resultsId","type":"bytes32","indexed":false,"internalType":"bytes32"}],"anonymous":false},{"type":"event","name":"OwnershipTransferred","inputs":[{"name":"previousOwner","type":"address","indexed":true,"internalType":"address"},{"name":"newOwner","type":"address","indexed":true,"internalType":"address"}],"anonymous":false},{"type":"event","name":"Upgraded","inputs":[{"name":"implementation","type":"address","indexed":true,"internalType":"address"}],"anonymous":false},{"type":"error","name":"AddressEmptyCode","inputs":[{"name":"target","type":"address","internalType":"address"}]},{"type":"error","name":"CallerNotWhitelisted","inputs":[]},{"type":"error","name":"ChallengeNotFound","inputs":[]},{"type":"error","name":"ChallengePeriodExpired","inputs":[]},{"type":"error","name":"ComputeRequestNotFound","inputs":[]},{"type":"error","name":"ComputeResultAlreadySubmitted","inputs":[]},{"type":"error","name":"ComputeResultNotFound","inputs":[]},{"type":"error","name":"ERC1967InvalidImplementation","inputs":[{"name":"implementation","type":"address","internalType":"address"}]},{"type":"error","name":"ERC1967NonPayable","inputs":[]},{"type":"error","name":"FailedCall","inputs":[]},{"type":"error","name":"InvalidInitialization","inputs":[]},{"type":"error","name":"InvalidReservationForImageId","inputs":[]},{"type":"error","name":"NotInitializing","inputs":[]},{"type":"error","name":"OwnableInvalidOwner","inputs":[{"name":"owner","type":"address","internalType":"address"}]},{"type":"error","name":"OwnableUnauthorizedAccount","inputs":[{"name":"account","type":"address","internalType":"address"}]},{"type":"error","name":"UUPSUnauthorizedCallContext","inputs":[]},{"type":"error","name":"UUPSUnsupportedProxiableUUID","inputs":[{"name":"slot","type":"bytes32","internalType":"bytes32"}]}],"bytecode":{"object":"0x60a06040523073ffffffffffffffffffffffffffffffffffffffff1660809073ffffffffffffffffffffffffffffffffffffffff16815250348015610042575f5ffd5b5061005161005660201b60201c565b6101d1565b5f61006561015460201b60201c565b9050805f0160089054906101000a900460ff16156100af576040517ff92ee8a900000000000000000000000000000000000000000000000000000000815260040160405180910390fd5b67ffffffffffffffff8016815f015f9054906101000a900467ffffffffffffffff1667ffffffffffffffff16146101515767ffffffffffffffff815f015f6101000a81548167ffffffffffffffff021916908367ffffffffffffffff1602179055507fc7f505b2f371ae2175ee4913f4499e1f2633a7b5936321eed1cdaeb6115181d267ffffffffffffffff60405161014891906101b8565b60405180910390a15b50565b5f5f61016461016d60201b60201c565b90508091505090565b5f7ff0c57e16840df040f15088dc2f81fe391c3923bec73e23a9662efc9c229c6a005f1b905090565b5f67ffffffffffffffff82169050919050565b6101b281610196565b82525050565b5f6020820190506101cb5f8301846101a9565b92915050565b6080516127726101f75f395f8181611364015281816113b9015261157301526127725ff3fe608060405260043610610129575f3560e01c8063d9e16101116100aa578063e5dcb1ad1161006e578063e5dcb1ad146103cb578063eb08ab2814610407578063f013667d14610431578063f2fde38b1461046d578063f976c87014610495578063fc2fb0cf146104d157610129565b8063d9e16101146102ac578063df12ece9146102eb578063df71e05b14610327578063e011d73e14610363578063e1ff2ed1146103a357610129565b80638da5cb5b116100f15780638da5cb5b146101c757806391228675146101f1578063ad3cb1cc14610219578063d62aad2914610243578063d75dec391461026d57610129565b80632bacdbcb1461012d5780634f1ef2861461015557806352d1902d14610171578063715018a61461019b5780638129fc1c146101b1575b5f5ffd5b348015610138575f5ffd5b50610153600480360381019061014e9190611cc3565b6104f9565b005b61016f600480360381019061016a9190611e2a565b610559565b005b34801561017c575f5ffd5b50610185610578565b6040516101929190611e9c565b60405180910390f35b3480156101a6575f5ffd5b506101af6105a9565b005b3480156101bc575f5ffd5b506101c56105bc565b005b3480156101d2575f5ffd5b506101db610873565b6040516101e89190611ec4565b60405180910390f35b3480156101fc575f5ffd5b5061021760048036038101906102129190611cc3565b6108a8565b005b348015610224575f5ffd5b5061022d610908565b60405161023a9190611f3d565b60405180910390f35b34801561024e575f5ffd5b50610257610941565b6040516102649190611f7f565b60405180910390f35b348015610278575f5ffd5b50610293600480360381019061028e9190611fcb565b610959565b6040516102a39493929190612023565b60405180910390f35b3480156102b7575f5ffd5b506102d260048036038101906102cd9190611fcb565b6109b3565b6040516102e29493929190612066565b60405180910390f35b3480156102f6575f5ffd5b50610311600480360381019061030c91906120d3565b6109fe565b60405161031e919061212b565b60405180910390f35b348015610332575f5ffd5b5061034d6004803603810190610348919061216e565b610cab565b60405161035a9190612199565b60405180910390f35b34801561036e575f5ffd5b5061038960048036038101906103849190611fcb565b610e3e565b60405161039a9594939291906121b2565b60405180910390f35b3480156103ae575f5ffd5b506103c960048036038101906103c49190611cc3565b610e8f565b005b3480156103d6575f5ffd5b506103f160048036038101906103ec9190612203565b610eef565b6040516103fe919061212b565b60405180910390f35b348015610412575f5ffd5b5061041b611111565b6040516104289190612199565b60405180910390f35b34801561043c575f5ffd5b5061045760048036038101906104529190612305565b611117565b604051610464919061212b565b60405180910390f35b348015610478575f5ffd5b50610493600480360381019061048e9190611cc3565b6111d3565b005b3480156104a0575f5ffd5b506104bb60048036038101906104b69190611cc3565b611257565b6040516104c8919061212b565b60405180910390f35b3480156104dc575f5ffd5b506104f760048036038101906104f2919061240b565b6112a9565b005b6105016112db565b600160045f8373ffffffffffffffffffffffffffffffffffffffff1673ffffffffffffffffffffffffffffffffffffffff1681526020019081526020015f205f6101000a81548160ff02191690831515021790555050565b610561611362565b61056a82611448565b6105748282611453565b5050565b5f610581611571565b7f360894a13ba1a3210667c828492db98dca3e2076cc3735a920a3ca505d382bbc5f1b905090565b6105b16112db565b6105ba5f6115f8565b565b5f6105c56116c9565b90505f815f0160089054906101000a900460ff161590505f825f015f9054906101000a900467ffffffffffffffff1690505f5f8267ffffffffffffffff1614801561060d5750825b90505f60018367ffffffffffffffff1614801561064057505f3073ffffffffffffffffffffffffffffffffffffffff163b145b90508115801561064e575080155b15610685576040517ff92ee8a900000000000000000000000000000000000000000000000000000000815260040160405180910390fd5b6001855f015f6101000a81548167ffffffffffffffff021916908367ffffffffffffffff16021790555083156106d2576001855f0160086101000a81548160ff0219169083151502179055505b60018081905550610e105f5f6101000a81548167ffffffffffffffff021916908367ffffffffffffffff160217905550600160025f3373ffffffffffffffffffffffffffffffffffffffff1673ffffffffffffffffffffffffffffffffffffffff1681526020019081526020015f205f6101000a81548160ff021916908315150217905550600160035f3373ffffffffffffffffffffffffffffffffffffffff1673ffffffffffffffffffffffffffffffffffffffff1681526020019081526020015f205f6101000a81548160ff021916908315150217905550600160045f3373ffffffffffffffffffffffffffffffffffffffff1673ffffffffffffffffffffffffffffffffffffffff1681526020019081526020015f205f6101000a81548160ff02191690831515021790555061080a336116dc565b6108126116f0565b831561086c575f855f0160086101000a81548160ff0219169083151502179055507fc7f505b2f371ae2175ee4913f4499e1f2633a7b5936321eed1cdaeb6115181d260016040516108639190612478565b60405180910390a15b5050505050565b5f5f61087d6116fa565b9050805f015f9054906101000a900473ffffffffffffffffffffffffffffffffffffffff1691505090565b6108b06112db565b600160035f8373ffffffffffffffffffffffffffffffffffffffff1673ffffffffffffffffffffffffffffffffffffffff1681526020019081526020015f205f6101000a81548160ff02191690831515021790555050565b6040518060400160405280600581526020017f352e302e3000000000000000000000000000000000000000000000000000000081525081565b5f5f9054906101000a900467ffffffffffffffff1681565b6007602052805f5260405f205f91509050805f015f9054906101000a900473ffffffffffffffffffffffffffffffffffffffff1690806001015490806002015f9054906101000a900463ffffffff16908060030154905084565b6005602052805f5260405f205f91509050805f015f9054906101000a900473ffffffffffffffffffffffffffffffffffffffff16908060010154908060020154908060030154905084565b5f60035f3373ffffffffffffffffffffffffffffffffffffffff1673ffffffffffffffffffffffffffffffffffffffff1681526020019081526020015f205f9054906101000a900460ff16610a7f576040517f8c6e5d7100000000000000000000000000000000000000000000000000000000815260040160405180910390fd5b5f60055f8581526020019081526020015f206001015403610acc576040517f1220e75300000000000000000000000000000000000000000000000000000000815260040160405180910390fd5b5f60065f8581526020019081526020015f206001015403610b19576040517f153e2a3e00000000000000000000000000000000000000000000000000000000815260040160405180910390fd5b5f60065f8581526020019081526020015f206004015442610b3a91906124be565b90505f5f9054906101000a900467ffffffffffffffff1667ffffffffffffffff16811115610b94576040517fe44560d600000000000000000000000000000000000000000000000000000000815260040160405180910390fd5b5f60405180608001604052803373ffffffffffffffffffffffffffffffffffffffff1681526020018681526020018563ffffffff1681526020014281525090508060075f8781526020019081526020015f205f820151815f015f6101000a81548173ffffffffffffffffffffffffffffffffffffffff021916908373ffffffffffffffffffffffffffffffffffffffff160217905550602082015181600101556040820151816002015f6101000a81548163ffffffff021916908363ffffffff16021790555060608201518160030155905050847fff5db812351f9d3044c5eff99e0f5caa53ca0e4ea7bfd0b614d29bed330c6bbc85604051610c9791906124f1565b60405180910390a260019250505092915050565b5f60045f3373ffffffffffffffffffffffffffffffffffffffff1673ffffffffffffffffffffffffffffffffffffffff1681526020019081526020015f205f9054906101000a900460ff16610d2c576040517f8c6e5d7100000000000000000000000000000000000000000000000000000000815260040160405180910390fd5b5f60405180608001604052803373ffffffffffffffffffffffffffffffffffffffff16815260200160015481526020018481526020014281525090508060055f60015481526020019081526020015f205f820151815f015f6101000a81548173ffffffffffffffffffffffffffffffffffffffff021916908373ffffffffffffffffffffffffffffffffffffffff1602179055506020820151816001015560408201518160020155606082015181600301559050506001547fd9cb7f9739d3b3466293b28238d0dbe49a842a2e235c101650c06b471e74569384604051610e139190611e9c565b60405180910390a260015491506001805f828254610e31919061250a565b9250508190555050919050565b6006602052805f5260405f205f91509050805f015f9054906101000a900473ffffffffffffffffffffffffffffffffffffffff16908060010154908060020154908060030154908060040154905085565b610e976112db565b600160025f8373ffffffffffffffffffffffffffffffffffffffff1673ffffffffffffffffffffffffffffffffffffffff1681526020019081526020015f205f6101000a81548160ff02191690831515021790555050565b5f60025f3373ffffffffffffffffffffffffffffffffffffffff1673ffffffffffffffffffffffffffffffffffffffff1681526020019081526020015f205f9054906101000a900460ff16610f70576040517f8c6e5d7100000000000000000000000000000000000000000000000000000000815260040160405180910390fd5b5f60055f8681526020019081526020015f206001015403610fbd576040517f1220e75300000000000000000000000000000000000000000000000000000000815260040160405180910390fd5b5f60065f8681526020019081526020015f20600101541461100a576040517ffd831f4400000000000000000000000000000000000000000000000000000000815260040160405180910390fd5b5f6040518060a001604052803373ffffffffffffffffffffffffffffffffffffffff1681526020018681526020018581526020018481526020014281525090508060065f8781526020019081526020015f205f820151815f015f6101000a81548173ffffffffffffffffffffffffffffffffffffffff021916908373ffffffffffffffffffffffffffffffffffffffff16021790555060208201518160010155604082015181600201556060820151816003015560808201518160040155905050847fc6c14934eadb38b7455516fd2a0ee0f96055ed17475f259fce0a4cea8905566f85856040516110fd92919061253d565b60405180910390a260019150509392505050565b60015481565b5f5f60065f8c81526020019081526020015f206001015403611165576040517f153e2a3e00000000000000000000000000000000000000000000000000000000815260040160405180910390fd5b5f60065f8c81526020019081526020015f206002015490505f6111878b611721565b9050611196818b8b8b8b611750565b6111a4575f925050506111c6565b6111b18787878786611750565b6111bf575f925050506111c6565b6001925050505b9998505050505050505050565b6111db6112db565b5f73ffffffffffffffffffffffffffffffffffffffff168173ffffffffffffffffffffffffffffffffffffffff160361124b575f6040517f1e4fbdf70000000000000000000000000000000000000000000000000000000081526004016112429190611ec4565b60405180910390fd5b611254816115f8565b50565b5f60025f8373ffffffffffffffffffffffffffffffffffffffff1673ffffffffffffffffffffffffffffffffffffffff1681526020019081526020015f205f9054906101000a900460ff169050919050565b6112b16112db565b805f5f6101000a81548167ffffffffffffffff021916908367ffffffffffffffff16021790555050565b6112e3611823565b73ffffffffffffffffffffffffffffffffffffffff16611301610873565b73ffffffffffffffffffffffffffffffffffffffff161461136057611324611823565b6040517f118cdaa70000000000000000000000000000000000000000000000000000000081526004016113579190611ec4565b60405180910390fd5b565b7f000000000000000000000000000000000000000000000000000000000000000073ffffffffffffffffffffffffffffffffffffffff163073ffffffffffffffffffffffffffffffffffffffff16148061140f57507f000000000000000000000000000000000000000000000000000000000000000073ffffffffffffffffffffffffffffffffffffffff166113f661182a565b73ffffffffffffffffffffffffffffffffffffffff1614155b15611446576040517fe07c8dba00000000000000000000000000000000000000000000000000000000815260040160405180910390fd5b565b6114506112db565b50565b8173ffffffffffffffffffffffffffffffffffffffff166352d1902d6040518163ffffffff1660e01b8152600401602060405180830381865afa9250505080156114bb57506040513d601f19601f820116820180604052508101906114b89190612578565b60015b6114fc57816040517f4c9c8ce30000000000000000000000000000000000000000000000000000000081526004016114f39190611ec4565b60405180910390fd5b7f360894a13ba1a3210667c828492db98dca3e2076cc3735a920a3ca505d382bbc5f1b811461156257806040517faa1d49a40000000000000000000000000000000000000000000000000000000081526004016115599190611e9c565b60405180910390fd5b61156c838361187d565b505050565b7f000000000000000000000000000000000000000000000000000000000000000073ffffffffffffffffffffffffffffffffffffffff163073ffffffffffffffffffffffffffffffffffffffff16146115f6576040517fe07c8dba00000000000000000000000000000000000000000000000000000000815260040160405180910390fd5b565b5f6116016116fa565b90505f815f015f9054906101000a900473ffffffffffffffffffffffffffffffffffffffff16905082825f015f6101000a81548173ffffffffffffffffffffffffffffffffffffffff021916908373ffffffffffffffffffffffffffffffffffffffff1602179055508273ffffffffffffffffffffffffffffffffffffffff168173ffffffffffffffffffffffffffffffffffffffff167f8be0079c531659141344cd1fd0a4f28419497f9722a3daafe3b4186f6b6457e060405160405180910390a3505050565b5f5f6116d36118ef565b90508091505090565b6116e4611918565b6116ed81611958565b50565b6116f8611918565b565b5f7f9016d09d72d40fdae2fd8ceac6b6234c7706214fd39c1cd1e609a0528c199300905090565b5f8160405160200161173391906125c3565b604051602081830303815290604052805190602001209050919050565b5f5f8690505f8690505f5f90505b86869050811015611812575f87878381811061177d5761177c6125dd565b5b9050602002013590505f6002846117949190612637565b036117c95783816040516020016117ac929190612687565b6040516020818303038152906040528051906020012093506117f5565b80846040516020016117dc929190612687565b6040516020818303038152906040528051906020012093505b60028361180291906126b2565b925050808060010191505061175e565b508382149250505095945050505050565b5f33905090565b5f6118567f360894a13ba1a3210667c828492db98dca3e2076cc3735a920a3ca505d382bbc5f1b6119dc565b5f015f9054906101000a900473ffffffffffffffffffffffffffffffffffffffff16905090565b611886826119e5565b8173ffffffffffffffffffffffffffffffffffffffff167fbc7cd75a20ee27fd9adebab32041f755214dbc6bffa90cc0225b39da2e5c2d3b60405160405180910390a25f815111156118e2576118dc8282611aae565b506118eb565b6118ea611b2e565b5b5050565b5f7ff0c57e16840df040f15088dc2f81fe391c3923bec73e23a9662efc9c229c6a005f1b905090565b611920611b6a565b611956576040517fd7e6bcf800000000000000000000000000000000000000000000000000000000815260040160405180910390fd5b565b611960611918565b5f73ffffffffffffffffffffffffffffffffffffffff168173ffffffffffffffffffffffffffffffffffffffff16036119d0575f6040517f1e4fbdf70000000000000000000000000000000000000000000000000000000081526004016119c79190611ec4565b60405180910390fd5b6119d9816115f8565b50565b5f819050919050565b5f8173ffffffffffffffffffffffffffffffffffffffff163b03611a4057806040517f4c9c8ce3000000000000000000000000000000000000000000000000000000008152600401611a379190611ec4565b60405180910390fd5b80611a6c7f360894a13ba1a3210667c828492db98dca3e2076cc3735a920a3ca505d382bbc5f1b6119dc565b5f015f6101000a81548173ffffffffffffffffffffffffffffffffffffffff021916908373ffffffffffffffffffffffffffffffffffffffff16021790555050565b60605f5f8473ffffffffffffffffffffffffffffffffffffffff1684604051611ad79190612726565b5f60405180830381855af49150503d805f8114611b0f576040519150601f19603f3d011682016040523d82523d5f602084013e611b14565b606091505b5091509150611b24858383611b88565b9250505092915050565b5f341115611b68576040517fb398979f00000000000000000000000000000000000000000000000000000000815260040160405180910390fd5b565b5f611b736116c9565b5f0160089054906101000a900460ff16905090565b606082611b9d57611b9882611c15565b611c0d565b5f8251148015611bc357505f8473ffffffffffffffffffffffffffffffffffffffff163b145b15611c0557836040517f9996b315000000000000000000000000000000000000000000000000000000008152600401611bfc9190611ec4565b60405180910390fd5b819050611c0e565b5b9392505050565b5f81511115611c2657805160208201fd5b6040517fd6bda27500000000000000000000000000000000000000000000000000000000815260040160405180910390fd5b5f604051905090565b5f5ffd5b5f5ffd5b5f73ffffffffffffffffffffffffffffffffffffffff82169050919050565b5f611c9282611c69565b9050919050565b611ca281611c88565b8114611cac575f5ffd5b50565b5f81359050611cbd81611c99565b92915050565b5f60208284031215611cd857611cd7611c61565b5b5f611ce584828501611caf565b91505092915050565b5f5ffd5b5f5ffd5b5f601f19601f8301169050919050565b7f4e487b71000000000000000000000000000000000000000000000000000000005f52604160045260245ffd5b611d3c82611cf6565b810181811067ffffffffffffffff82111715611d5b57611d5a611d06565b5b80604052505050565b5f611d6d611c58565b9050611d798282611d33565b919050565b5f67ffffffffffffffff821115611d9857611d97611d06565b5b611da182611cf6565b9050602081019050919050565b828183375f83830152505050565b5f611dce611dc984611d7e565b611d64565b905082815260208101848484011115611dea57611de9611cf2565b5b611df5848285611dae565b509392505050565b5f82601f830112611e1157611e10611cee565b5b8135611e21848260208601611dbc565b91505092915050565b5f5f60408385031215611e4057611e3f611c61565b5b5f611e4d85828601611caf565b925050602083013567ffffffffffffffff811115611e6e57611e6d611c65565b5b611e7a85828601611dfd565b9150509250929050565b5f819050919050565b611e9681611e84565b82525050565b5f602082019050611eaf5f830184611e8d565b92915050565b611ebe81611c88565b82525050565b5f602082019050611ed75f830184611eb5565b92915050565b5f81519050919050565b5f82825260208201905092915050565b8281835e5f83830152505050565b5f611f0f82611edd565b611f198185611ee7565b9350611f29818560208601611ef7565b611f3281611cf6565b840191505092915050565b5f6020820190508181035f830152611f558184611f05565b905092915050565b5f67ffffffffffffffff82169050919050565b611f7981611f5d565b82525050565b5f602082019050611f925f830184611f70565b92915050565b5f819050919050565b611faa81611f98565b8114611fb4575f5ffd5b50565b5f81359050611fc581611fa1565b92915050565b5f60208284031215611fe057611fdf611c61565b5b5f611fed84828501611fb7565b91505092915050565b611fff81611f98565b82525050565b5f63ffffffff82169050919050565b61201d81612005565b82525050565b5f6080820190506120365f830187611eb5565b6120436020830186611ff6565b6120506040830185612014565b61205d6060830184611ff6565b95945050505050565b5f6080820190506120795f830187611eb5565b6120866020830186611ff6565b6120936040830185611e8d565b6120a06060830184611ff6565b95945050505050565b6120b281612005565b81146120bc575f5ffd5b50565b5f813590506120cd816120a9565b92915050565b5f5f604083850312156120e9576120e8611c61565b5b5f6120f685828601611fb7565b9250506020612107858286016120bf565b9150509250929050565b5f8115159050919050565b61212581612111565b82525050565b5f60208201905061213e5f83018461211c565b92915050565b61214d81611e84565b8114612157575f5ffd5b50565b5f8135905061216881612144565b92915050565b5f6020828403121561218357612182611c61565b5b5f6121908482850161215a565b91505092915050565b5f6020820190506121ac5f830184611ff6565b92915050565b5f60a0820190506121c55f830188611eb5565b6121d26020830187611ff6565b6121df6040830186611e8d565b6121ec6060830185611e8d565b6121f96080830184611ff6565b9695505050505050565b5f5f5f6060848603121561221a57612219611c61565b5b5f61222786828701611fb7565b93505060206122388682870161215a565b92505060406122498682870161215a565b9150509250925092565b5f7fffffffff0000000000000000000000000000000000000000000000000000000082169050919050565b61228781612253565b8114612291575f5ffd5b50565b5f813590506122a28161227e565b92915050565b5f5ffd5b5f5ffd5b5f5f83601f8401126122c5576122c4611cee565b5b8235905067ffffffffffffffff8111156122e2576122e16122a8565b5b6020830191508360208202830111156122fe576122fd6122ac565b5b9250929050565b5f5f5f5f5f5f5f5f5f60e08a8c03121561232257612321611c61565b5b5f61232f8c828d01611fb7565b99505060206123408c828d01612294565b98505060406123518c828d01611fb7565b97505060608a013567ffffffffffffffff81111561237257612371611c65565b5b61237e8c828d016122b0565b965096505060806123918c828d0161215a565b94505060a06123a28c828d01611fb7565b93505060c08a013567ffffffffffffffff8111156123c3576123c2611c65565b5b6123cf8c828d016122b0565b92509250509295985092959850929598565b6123ea81611f5d565b81146123f4575f5ffd5b50565b5f81359050612405816123e1565b92915050565b5f602082840312156124205761241f611c61565b5b5f61242d848285016123f7565b91505092915050565b5f819050919050565b5f819050919050565b5f61246261245d61245884612436565b61243f565b611f5d565b9050919050565b61247281612448565b82525050565b5f60208201905061248b5f830184612469565b92915050565b7f4e487b71000000000000000000000000000000000000000000000000000000005f52601160045260245ffd5b5f6124c882611f98565b91506124d383611f98565b92508282039050818111156124eb576124ea612491565b5b92915050565b5f6020820190506125045f830184612014565b92915050565b5f61251482611f98565b915061251f83611f98565b925082820190508082111561253757612536612491565b5b92915050565b5f6040820190506125505f830185611e8d565b61255d6020830184611e8d565b9392505050565b5f8151905061257281612144565b92915050565b5f6020828403121561258d5761258c611c61565b5b5f61259a84828501612564565b91505092915050565b5f819050919050565b6125bd6125b882612253565b6125a3565b82525050565b5f6125ce82846125ac565b60048201915081905092915050565b7f4e487b71000000000000000000000000000000000000000000000000000000005f52603260045260245ffd5b7f4e487b71000000000000000000000000000000000000000000000000000000005f52601260045260245ffd5b5f61264182611f98565b915061264c83611f98565b92508261265c5761265b61260a565b5b828206905092915050565b5f819050919050565b61268161267c82611e84565b612667565b82525050565b5f6126928285612670565b6020820191506126a28284612670565b6020820191508190509392505050565b5f6126bc82611f98565b91506126c783611f98565b9250826126d7576126d661260a565b5b828204905092915050565b5f81519050919050565b5f81905092915050565b5f612700826126e2565b61270a81856126ec565b935061271a818560208601611ef7565b80840191505092915050565b5f61273182846126f6565b91508190509291505056fea2646970667358221220908837b3454503385203823165c35f63dfd887a4605a9c182e16582df904498b64736f6c634300081b0033","linkReferences":{}},"methodIdentifiers":{"CHALLENGE_WINDOW()":"d62aad29","UPGRADE_INTERFACE_VERSION()":"ad3cb1cc","allowlistChallenger(address)":"91228675","allowlistComputer(address)":"e1ff2ed1","allowlistUser(address)":"2bacdbcb","idCounter()":"eb08ab28","initialize()":"8129fc1c","isAllowlistedComputer(address)":"f976c870","metaChallenges(uint256)":"d75dec39","metaComputeRequests(uint256)":"d9e16101","metaComputeResults(uint256)":"e011d73e","owner()":"8da5cb5b","proxiableUUID()":"52d1902d","renounceOwnership()":"715018a6","submitMetaChallenge(uint256,uint32)":"df12ece9","submitMetaComputeRequest(bytes32)":"df71e05b","submitMetaComputeResult(uint256,bytes32,bytes32)":"e5dcb1ad","transferOwnership(address)":"f2fde38b","updateChallengeWindow(uint64)":"fc2fb0cf","upgradeToAndCall(address,bytes)":"4f1ef286","verifyScoreProof(uint256,bytes4,uint256,bytes32[],bytes32,uint256,bytes32[])":"f013667d"},"storageLayout":{"storage":[{"astId":52881,"contract":"contracts/src/OpenRankManager.sol:OpenRankManager","label":"CHALLENGE_WINDOW","offset":0,"slot":"0","type":"t_uint64"},{"astId":52883,"contract":"contracts/src/OpenRankManager.sol:OpenRankManager","label":"idCounter","offset":0,"slot":"1","type":"t_uint256"},{"astId":52887,"contract":"contracts/src/OpenRankManager.sol:OpenRankManager","label":"allowlistedComputers","offset":0,"slot":"2","type":"t_mapping(t_address,t_bool)"},{"astId":52891,"contract":"contracts/src/OpenRankManager.sol:OpenRankManager","label":"allowlistedChallengers","offset":0,"slot":"3","type":"t_mapping(t_address,t_bool)"},{"astId":52895,"contract":"contracts/src/OpenRankManager.sol:OpenRankManager","label":"allowlistedUsers","offset":0,"slot":"4","type":"t_mapping(t_address,t_bool)"},{"astId":52900,"contract":"contracts/src/OpenRankManager.sol:OpenRankManager","label":"metaComputeRequests","offset":0,"slot":"5","type":"t_mapping(t_uint256,t_struct(MetaComputeRequest)52207_storage)"},{"astId":52905,"contract":"contracts/src/OpenRankManager.sol:OpenRankManager","label":"metaComputeResults","offset":0,"slot":"6","type":"t_mapping(t_uint256,t_struct(MetaComputeResult)52218_storage)"},{"astId":52910,"contract":"contracts/src/OpenRankManager.sol:OpenRankManager","label":"metaChallenges","offset":0,"slot":"7","type":"t_mapping(t_uint256,t_struct(MetaChallenge)52227_storage)"},{"astId":52914,"contract":"contracts/src/OpenRankManager.sol:OpenRankManager","label":"__gap","offset":0,"slot":"8","type":"t_array(t_uint256)49_storage"}],"types":{"t_address":{"encoding":"inplace","label":"address","numberOfBytes":"20"},"t_array(t_uint256)49_storage":{"encoding":"inplace","label":"uint256[49]","numberOfBytes":"1568","base":"t_uint256"},"t_bool":{"encoding":"inplace","label":"bool","numberOfBytes":"1"},"t_bytes32":{"encoding":"inplace","label":"bytes32","numberOfBytes":"32"},"t_mapping(t_address,t_bool)":{"encoding":"mapping","key":"t_address","label":"mapping(address => bool)","numberOfBytes":"32","value":"t_bool"},"t_mapping(t_uint256,t_struct(MetaChallenge)52227_storage)":{"encoding":"mapping","key":"t_uint256","label":"mapping(uint256 => struct IOpenRankManager.MetaChallenge)","numberOfBytes":"32","value":"t_struct(MetaChallenge)52227_storage"},"t_mapping(t_uint256,t_struct(MetaComputeRequest)52207_storage)":{"encoding":"mapping","key":"t_uint256","label":"mapping(uint256 => struct IOpenRankManager.MetaComputeRequest)","numberOfBytes":"32","value":"t_struct(MetaComputeRequest)52207_storage"},"t_mapping(t_uint256,t_struct(MetaComputeResult)52218_storage)":{"encoding":"mapping","key":"t_uint256","label":"mapping(uint256 => struct IOpenRankManager.MetaComputeResult)","numberOfBytes":"32","value":"t_struct(MetaComputeResult)52218_storage"},"t_struct(MetaChallenge)52227_storage":{"encoding":"inplace","label":"struct IOpenRankManager.MetaChallenge","numberOfBytes":"128","members":[{"astId":52220,"contract":"contracts/src/OpenRankManager.sol:OpenRankManager","label":"challenger","offset":0,"slot":"0","type":"t_address"},{"astId":52222,"contract":"contracts/src/OpenRankManager.sol:OpenRankManager","label":"computeId","offset":0,"slot":"1","type":"t_uint256"},{"astId":52224,"contract":"contracts/src/OpenRankManager.sol:OpenRankManager","label":"subJobId","offset":0,"slot":"2","type":"t_uint32"},{"astId":52226,"contract":"contracts/src/OpenRankManager.sol:OpenRankManager","label":"timestamp","offset":0,"slot":"3","type":"t_uint256"}]},"t_struct(MetaComputeRequest)52207_storage":{"encoding":"inplace","label":"struct IOpenRankManager.MetaComputeRequest","numberOfBytes":"128","members":[{"astId":52200,"contract":"contracts/src/OpenRankManager.sol:OpenRankManager","label":"user","offset":0,"slot":"0","type":"t_address"},{"astId":52202,"contract":"contracts/src/OpenRankManager.sol:OpenRankManager","label":"id","offset":0,"slot":"1","type":"t_uint256"},{"astId":52204,"contract":"contracts/src/OpenRankManager.sol:OpenRankManager","label":"jobDescriptionId","offset":0,"slot":"2","type":"t_bytes32"},{"astId":52206,"contract":"contracts/src/OpenRankManager.sol:OpenRankManager","label":"timestamp","offset":0,"slot":"3","type":"t_uint256"}]},"t_struct(MetaComputeResult)52218_storage":{"encoding":"inplace","label":"struct IOpenRankManager.MetaComputeResult","numberOfBytes":"160","members":[{"astId":52209,"contract":"contracts/src/OpenRankManager.sol:OpenRankManager","label":"computer","offset":0,"slot":"0","type":"t_address"},{"astId":52211,"contract":"contracts/src/OpenRankManager.sol:OpenRankManager","label":"computeId","offset":0,"slot":"1","type":"t_uint256"},{"astId":52213,"contract":"contracts/src/OpenRankManager.sol:OpenRankManager","label":"metaCommitment","offset":0,"slot":"2","type":"t_bytes32"},{"astId":52215,"contract":"contracts/src/OpenRankManager.sol:OpenRankManager","label":"resultsId","offset":0,"slot":"3","type":"t_bytes32"},{"astId":52217,"contract":"contracts/src/OpenRankManager.sol:OpenRankManager","label":"timestamp","offset":0,"slot":"4","type":"t_uint256"}]},"t_uint256":{"encoding":"inplace","label":"uint256","numberOfBytes":"32"},"t_uint32":{"encoding":"inplace","label":"uint32","numberOfBytes":"4"},"t_uint64":{"encoding":"inplace","label":"uint64","numberOfBytes":"8"}}},"id":63}