{
    "abi": [
        {
            "type": "constructor",
            "inputs": [],
            "stateMutability": "nonpayable"
        },
        {
            "type": "function",
            "name": "CHALLENGE_WINDOW",
            "inputs": [],
            "outputs": [
                {
                    "name": "",
                    "type": "uint64",
                    "internalType": "uint64"
                }
            ],
            "stateMutability": "view"
        },
        {
            "type": "function",
            "name": "allowlistComputer",
            "inputs": [
                {
                    "name": "computer",
                    "type": "address",
                    "internalType": "address"
                }
            ],
            "outputs": [],
            "stateMutability": "nonpayable"
        },
        {
            "type": "function",
            "name": "idCounter",
            "inputs": [],
            "outputs": [
                {
                    "name": "",
                    "type": "uint256",
                    "internalType": "uint256"
                }
            ],
            "stateMutability": "view"
        },
        {
            "type": "function",
            "name": "isAllowlistedComputer",
            "inputs": [
                {
                    "name": "computer",
                    "type": "address",
                    "internalType": "address"
                }
            ],
            "outputs": [
                {
                    "name": "",
                    "type": "bool",
                    "internalType": "bool"
                }
            ],
            "stateMutability": "view"
        },
        {
            "type": "function",
            "name": "metaChallenges",
            "inputs": [
                {
                    "name": "",
                    "type": "uint256",
                    "internalType": "uint256"
                }
            ],
            "outputs": [
                {
                    "name": "challenger",
                    "type": "address",
                    "internalType": "address"
                },
                {
                    "name": "computeId",
                    "type": "uint256",
                    "internalType": "uint256"
                },
                {
                    "name": "subJobId",
                    "type": "uint32",
                    "internalType": "uint32"
                },
                {
                    "name": "timestamp",
                    "type": "uint256",
                    "internalType": "uint256"
                }
            ],
            "stateMutability": "view"
        },
        {
            "type": "function",
            "name": "metaComputeRequests",
            "inputs": [
                {
                    "name": "",
                    "type": "uint256",
                    "internalType": "uint256"
                }
            ],
            "outputs": [
                {
                    "name": "user",
                    "type": "address",
                    "internalType": "address"
                },
                {
                    "name": "id",
                    "type": "uint256",
                    "internalType": "uint256"
                },
                {
                    "name": "jobDescriptionId",
                    "type": "bytes32",
                    "internalType": "bytes32"
                },
                {
                    "name": "timestamp",
                    "type": "uint256",
                    "internalType": "uint256"
                }
            ],
            "stateMutability": "view"
        },
        {
            "type": "function",
            "name": "metaComputeResults",
            "inputs": [
                {
                    "name": "",
                    "type": "uint256",
                    "internalType": "uint256"
                }
            ],
            "outputs": [
                {
                    "name": "computer",
                    "type": "address",
                    "internalType": "address"
                },
                {
                    "name": "computeId",
                    "type": "uint256",
                    "internalType": "uint256"
                },
                {
                    "name": "metaCommitment",
                    "type": "bytes32",
                    "internalType": "bytes32"
                },
                {
                    "name": "resultsId",
                    "type": "bytes32",
                    "internalType": "bytes32"
                },
                {
                    "name": "timestamp",
                    "type": "uint256",
                    "internalType": "uint256"
                }
            ],
            "stateMutability": "view"
        },
        {
            "type": "function",
            "name": "submitMetaChallenge",
            "inputs": [
                {
                    "name": "computeId",
                    "type": "uint256",
                    "internalType": "uint256"
                },
                {
                    "name": "subJobId",
                    "type": "uint32",
                    "internalType": "uint32"
                }
            ],
            "outputs": [
                {
                    "name": "",
                    "type": "bool",
                    "internalType": "bool"
                }
            ],
            "stateMutability": "nonpayable"
        },
        {
            "type": "function",
            "name": "submitMetaComputeRequest",
            "inputs": [
                {
                    "name": "jobDescriptionId",
                    "type": "bytes32",
                    "internalType": "bytes32"
                }
            ],
            "outputs": [
                {
                    "name": "computeId",
                    "type": "uint256",
                    "internalType": "uint256"
                }
            ],
            "stateMutability": "nonpayable"
        },
        {
            "type": "function",
            "name": "submitMetaComputeResult",
            "inputs": [
                {
                    "name": "computeId",
                    "type": "uint256",
                    "internalType": "uint256"
                },
                {
                    "name": "metaCommitment",
                    "type": "bytes32",
                    "internalType": "bytes32"
                },
                {
                    "name": "resultsId",
                    "type": "bytes32",
                    "internalType": "bytes32"
                }
            ],
            "outputs": [
                {
                    "name": "",
                    "type": "bool",
                    "internalType": "bool"
                }
            ],
            "stateMutability": "nonpayable"
        },
        {
            "type": "function",
            "name": "updateChallengeWindow",
            "inputs": [
                {
                    "name": "challengeWindow",
                    "type": "uint64",
                    "internalType": "uint64"
                }
            ],
            "outputs": [],
            "stateMutability": "nonpayable"
        },
        {
            "type": "event",
            "name": "MetaChallengeEvent",
            "inputs": [
                {
                    "name": "computeId",
                    "type": "uint256",
                    "indexed": true,
                    "internalType": "uint256"
                },
                {
                    "name": "subJobId",
                    "type": "uint32",
                    "indexed": false,
                    "internalType": "uint32"
                }
            ],
            "anonymous": false
        },
        {
            "type": "event",
            "name": "MetaComputeRequestEvent",
            "inputs": [
                {
                    "name": "computeId",
                    "type": "uint256",
                    "indexed": true,
                    "internalType": "uint256"
                },
                {
                    "name": "jobDescriptionId",
                    "type": "bytes32",
                    "indexed": false,
                    "internalType": "bytes32"
                }
            ],
            "anonymous": false
        },
        {
            "type": "event",
            "name": "MetaComputeResultEvent",
            "inputs": [
                {
                    "name": "computeId",
                    "type": "uint256",
                    "indexed": true,
                    "internalType": "uint256"
                },
                {
                    "name": "commitment",
                    "type": "bytes32",
                    "indexed": false,
                    "internalType": "bytes32"
                },
                {
                    "name": "resultsId",
                    "type": "bytes32",
                    "indexed": false,
                    "internalType": "bytes32"
                }
            ],
            "anonymous": false
        },
        {
            "type": "error",
            "name": "CallerNotWhitelisted",
            "inputs": []
        },
        {
            "type": "error",
            "name": "ChallengeNotFound",
            "inputs": []
        },
        {
            "type": "error",
            "name": "ChallengePeriodExpired",
            "inputs": []
        },
        {
            "type": "error",
            "name": "ComputeRequestNotFound",
            "inputs": []
        },
        {
            "type": "error",
            "name": "ComputeResultAlreadySubmitted",
            "inputs": []
        },
        {
            "type": "error",
            "name": "ComputeResultNotFound",
            "inputs": []
        },
        {
            "type": "error",
            "name": "InvalidReservationForImageId",
            "inputs": []
        }
    ],
    "bytecode": {
        "object": "0x60808060405234608b575f80546001600160401b031916610e10178155600180805533808352600260209081526040808520805460ff1990811686179091556003835281862080548216861790556004909252808520805490921690931790558254600160401b600160e01b031916911b600160401b600160e01b03161790556106b990816100908239f35b5f80fdfe6080806040526004361015610012575f80fd5b5f3560e01c908163d62aad291461064057508063d75dec39146105e6578063d9e1610114610592578063df12ece91461043c578063df71e05b1461034e578063e011d73e146102f1578063e1ff2ed11461029d578063e5dcb1ad14610143578063eb08ab2814610126578063f976c870146100e55763fc2fb0cf14610095575f80fd5b346100e15760203660031901126100e15760043567ffffffffffffffff81168091036100e1575f54604081901c6001600160a01b031633036100e15767ffffffffffffffff1916175f55005b5f80fd5b346100e15760203660031901126100e1576004356001600160a01b038116908190036100e1575f526002602052602060ff60405f2054166040519015158152f35b346100e1575f3660031901126100e1576020600154604051908152f35b346100e15760603660031901126100e157600435602435604435335f52600260205260ff60405f2054161561028e57825f526005602052600160405f2001541561027f57825f526006602052600160405f200154610270576040519160a083019183831067ffffffffffffffff84111761025c577fc6c14934eadb38b7455516fd2a0ee0f96055ed17475f259fce0a4cea8905566f936040938452338152600460208201878152858301858152606084019085825260808501924284528a5f526006602052885f209560018060a01b039060018060a01b03905116166001600160601b0360a01b8754161786555160018601555160028501555160038401555191015582519182526020820152a2602060405160018152f35b634e487b7160e01b5f52604160045260245ffd5b633f60c7d160e21b5f5260045ffd5b631220e75360e01b5f5260045ffd5b638c6e5d7160e01b5f5260045ffd5b346100e15760203660031901126100e1576004356001600160a01b038116908190036100e1575f5460401c6001600160a01b031633036100e1575f908152600260205260409020805460ff19166001179055005b346100e15760203660031901126100e1576004355f52600660205260a060405f20600180831b0381541690600181015490600281015460046003830154920154926040519485526020850152604084015260608301526080820152f35b346100e15760203660031901126100e157600435335f52600460205260ff60405f2054161561028e576020906001546003610387610663565b91338352848301818152604084019085825260608501924284525f526005875260405f209460018060a01b039060018060a01b03905116166001600160601b0360a01b865416178555516001850155516002840155519101557fd9cb7f9739d3b3466293b28238d0dbe49a842a2e235c101650c06b471e745693600154928392604051908152a2600181019081811161042857602091600155604051908152f35b634e487b7160e01b5f52601160045260245ffd5b346100e15760403660031901126100e15760043560243563ffffffff81168091036100e157335f52600360205260ff60405f2054161561028e57815f526005602052600160405f2001541561027f57815f526006602052600160405f2001541561058357815f526006602052600460405f20015442034281116104285767ffffffffffffffff5f5416106105745760207fff5db812351f9d3044c5eff99e0f5caa53ca0e4ea7bfd0b614d29bed330c6bbc916104f6610663565b3381526003838201868152604083018481526060840191428352885f526007875260405f209460018060a01b039060018060a01b03905116166001600160601b0360a01b86541617855551600185015563ffffffff6002850191511663ffffffff1982541617905551910155604051908152a2602060405160018152f35b637222b06b60e11b5f5260045ffd5b630a9f151f60e11b5f5260045ffd5b346100e15760203660031901126100e1576004355f526005602052608060405f2060018060a01b03815416906001810154906003600282015491015491604051938452602084015260408301526060820152f35b346100e15760203660031901126100e1576004355f526007602052608060405f2060018060a01b0381541690600181015490600363ffffffff60028301541691015491604051938452602084015260408301526060820152f35b346100e1575f3660031901126100e15760209067ffffffffffffffff5f54168152f35b604051906080820182811067ffffffffffffffff82111761025c5760405256fea26469706673582212200b6adad9800e35699a75f99c25e61188b952682e80d8c417f9fa0c4c8a12de8e64736f6c634300081b0033",
        "linkReferences": {}
    },
    "methodIdentifiers": {
        "CHALLENGE_WINDOW()": "d62aad29",
        "allowlistComputer(address)": "e1ff2ed1",
        "idCounter()": "eb08ab28",
        "isAllowlistedComputer(address)": "f976c870",
        "metaChallenges(uint256)": "d75dec39",
        "metaComputeRequests(uint256)": "d9e16101",
        "metaComputeResults(uint256)": "e011d73e",
        "submitMetaChallenge(uint256,uint32)": "df12ece9",
        "submitMetaComputeRequest(bytes32)": "df71e05b",
        "submitMetaComputeResult(uint256,bytes32,bytes32)": "e5dcb1ad",
        "updateChallengeWindow(uint64)": "fc2fb0cf"
    },
    "id": 23
}