{"abi":[{"type":"constructor","inputs":[{"name":"_permissionController","type":"address","internalType":"contract IPermissionController"},{"name":"_reservationRegistry","type":"address","internalType":"contract IReservationRegistry"},{"name":"_slashingRegistryCoordinator","type":"address","internalType":"contract ISlashingRegistryCoordinator"},{"name":"_indexRegistry","type":"address","internalType":"contract IIndexRegistry"},{"name":"_stakeRegistry","type":"address","internalType":"contract IStakeRegistry"},{"name":"_paymentToken","type":"address","internalType":"contract IERC20"}],"stateMutability":"nonpayable"},{"type":"function","name":"DENOMINATOR","inputs":[],"outputs":[{"name":"","type":"uint256","internalType":"uint256"}],"stateMutability":"view"},{"type":"function","name":"THRESHOLD","inputs":[],"outputs":[{"name":"","type":"uint256","internalType":"uint256"}],"stateMutability":"view"},{"type":"function","name":"getFinalizedResponse","inputs":[{"name":"requestIndex","type":"uint256","internalType":"uint256"}],"outputs":[{"name":"status","type":"uint8","internalType":"enum IReexecutionEndpoint.RequestStatus"},{"name":"finalizedResultHash","type":"bytes32","internalType":"bytes32"}],"stateMutability":"nonpayable"},{"type":"function","name":"getFinalizedResponseView","inputs":[{"name":"requestIndex","type":"uint256","internalType":"uint256"}],"outputs":[{"name":"status","type":"uint8","internalType":"enum IReexecutionEndpoint.RequestStatus"},{"name":"finalizedResultHash","type":"bytes32","internalType":"bytes32"}],"stateMutability":"view"},{"type":"function","name":"getRequest","inputs":[{"name":"requestIndex","type":"uint256","internalType":"uint256"}],"outputs":[{"name":"request","type":"tuple","internalType":"struct IReexecutionEndpoint.ReexecutionRequest","components":[{"name":"avs","type":"address","internalType":"address"},{"name":"imageID","type":"uint32","internalType":"uint32"},{"name":"syncPayloadHash","type":"bytes32","internalType":"bytes32"},{"name":"taskID","type":"bytes32","internalType":"bytes32"},{"name":"taskPayloadHash","type":"bytes32","internalType":"bytes32"},{"name":"requestBlock","type":"uint32","internalType":"uint32"},{"name":"epochStartBlockNumber","type":"uint32","internalType":"uint32"},{"name":"totalStakeWeight","type":"uint96","internalType":"uint96"},{"name":"finalizedResultHash","type":"bytes32","internalType":"bytes32"},{"name":"feePerOperator","type":"uint256","internalType":"uint256"},{"name":"status","type":"uint8","internalType":"enum IReexecutionEndpoint.RequestStatus"}]}],"stateMutability":"view"},{"type":"function","name":"getRequestCount","inputs":[],"outputs":[{"name":"count","type":"uint256","internalType":"uint256"}],"stateMutability":"view"},{"type":"function","name":"getRequestFee","inputs":[{"name":"blockNumber","type":"uint32","internalType":"uint32"}],"outputs":[{"name":"requiredFee","type":"uint256","internalType":"uint256"},{"name":"feePerOperator","type":"uint256","internalType":"uint256"}],"stateMutability":"view"},{"type":"function","name":"getRequestStatus","inputs":[{"name":"requestIndex","type":"uint256","internalType":"uint256"}],"outputs":[{"name":"status","type":"uint8","internalType":"enum IReexecutionEndpoint.RequestStatus"}],"stateMutability":"view"},{"type":"function","name":"getResultHash","inputs":[{"name":"requestIndex","type":"uint256","internalType":"uint256"},{"name":"operator","type":"address","internalType":"address"}],"outputs":[{"name":"resultHash","type":"bytes32","internalType":"bytes32"}],"stateMutability":"view"},{"type":"function","name":"hasOperatorResponded","inputs":[{"name":"requestIndex","type":"uint256","internalType":"uint256"},{"name":"operator","type":"address","internalType":"address"}],"outputs":[{"name":"","type":"bool","internalType":"bool"}],"stateMutability":"view"},{"type":"function","name":"indexRegistry","inputs":[],"outputs":[{"name":"","type":"address","internalType":"contract IIndexRegistry"}],"stateMutability":"view"},{"type":"function","name":"initialize","inputs":[{"name":"initialOwner","type":"address","internalType":"address"},{"name":"_responseFeePerOperator","type":"uint256","internalType":"uint256"},{"name":"_reexecutionFeePerOperator","type":"uint256","internalType":"uint256"},{"name":"_responseWindowBlocks","type":"uint256","internalType":"uint256"}],"outputs":[],"stateMutability":"nonpayable"},{"type":"function","name":"owner","inputs":[],"outputs":[{"name":"","type":"address","internalType":"address"}],"stateMutability":"view"},{"type":"function","name":"paymentToken","inputs":[],"outputs":[{"name":"","type":"address","internalType":"contract IERC20"}],"stateMutability":"view"},{"type":"function","name":"permissionController","inputs":[],"outputs":[{"name":"","type":"address","internalType":"contract IPermissionController"}],"stateMutability":"view"},{"type":"function","name":"reexecutionFeePerOperator","inputs":[],"outputs":[{"name":"","type":"uint256","internalType":"uint256"}],"stateMutability":"view"},{"type":"function","name":"renounceOwnership","inputs":[],"outputs":[],"stateMutability":"nonpayable"},{"type":"function","name":"requestReexecution","inputs":[{"name":"imageID","type":"uint32","internalType":"uint32"},{"name":"syncPayload","type":"bytes","internalType":"bytes"},{"name":"taskID","type":"bytes32","internalType":"bytes32"},{"name":"taskPayload","type":"bytes","internalType":"bytes"}],"outputs":[{"name":"requestIndex","type":"uint256","internalType":"uint256"}],"stateMutability":"nonpayable"},{"type":"function","name":"reservationRegistry","inputs":[],"outputs":[{"name":"","type":"address","internalType":"contract IReservationRegistry"}],"stateMutability":"view"},{"type":"function","name":"respond","inputs":[{"name":"operator","type":"address","internalType":"address"},{"name":"requestIndex","type":"uint256","internalType":"uint256"},{"name":"resultHash","type":"bytes32","internalType":"bytes32"},{"name":"","type":"bytes","internalType":"bytes"}],"outputs":[],"stateMutability":"nonpayable"},{"type":"function","name":"responseFeePerOperator","inputs":[],"outputs":[{"name":"","type":"uint256","internalType":"uint256"}],"stateMutability":"view"},{"type":"function","name":"responseWindowBlocks","inputs":[],"outputs":[{"name":"","type":"uint256","internalType":"uint256"}],"stateMutability":"view"},{"type":"function","name":"setReexecutionFeePerOperator","inputs":[{"name":"_reexecutionFeePerOperator","type":"uint256","internalType":"uint256"}],"outputs":[],"stateMutability":"nonpayable"},{"type":"function","name":"setResponseFeePerOperator","inputs":[{"name":"_responseFeePerOperator","type":"uint256","internalType":"uint256"}],"outputs":[],"stateMutability":"nonpayable"},{"type":"function","name":"setResponseWindowBlocks","inputs":[{"name":"_responseWindowBlocks","type":"uint256","internalType":"uint256"}],"outputs":[],"stateMutability":"nonpayable"},{"type":"function","name":"slashingRegistryCoordinator","inputs":[],"outputs":[{"name":"","type":"address","internalType":"contract ISlashingRegistryCoordinator"}],"stateMutability":"view"},{"type":"function","name":"stakeRegistry","inputs":[],"outputs":[{"name":"","type":"address","internalType":"contract IStakeRegistry"}],"stateMutability":"view"},{"type":"function","name":"transferOwnership","inputs":[{"name":"newOwner","type":"address","internalType":"address"}],"outputs":[],"stateMutability":"nonpayable"},{"type":"event","name":"Initialized","inputs":[{"name":"version","type":"uint8","indexed":false,"internalType":"uint8"}],"anonymous":false},{"type":"event","name":"OperatorResponse","inputs":[{"name":"requestIndex","type":"uint256","indexed":true,"internalType":"uint256"},{"name":"operator","type":"address","indexed":true,"internalType":"address"},{"name":"response","type":"bytes32","indexed":true,"internalType":"bytes32"},{"name":"stake","type":"uint256","indexed":false,"internalType":"uint256"}],"anonymous":false},{"type":"event","name":"OwnershipTransferred","inputs":[{"name":"previousOwner","type":"address","indexed":true,"internalType":"address"},{"name":"newOwner","type":"address","indexed":true,"internalType":"address"}],"anonymous":false},{"type":"event","name":"ReexecutionFeePerOperatorSet","inputs":[{"name":"reexecutionFeePerOperator","type":"uint256","indexed":false,"internalType":"uint256"}],"anonymous":false},{"type":"event","name":"ReexecutionRequestCreated","inputs":[{"name":"requestIndex","type":"uint256","indexed":true,"internalType":"uint256"},{"name":"avs","type":"address","indexed":true,"internalType":"address"},{"name":"reservationID","type":"uint256","indexed":true,"internalType":"uint256"},{"name":"imageID","type":"uint32","indexed":false,"internalType":"uint32"},{"name":"syncPayload","type":"bytes","indexed":false,"internalType":"bytes"},{"name":"taskID","type":"bytes32","indexed":false,"internalType":"bytes32"},{"name":"taskPayload","type":"bytes","indexed":false,"internalType":"bytes"},{"name":"requestBlock","type":"uint32","indexed":false,"internalType":"uint32"}],"anonymous":false},{"type":"event","name":"ResponseFeePerOperatorSet","inputs":[{"name":"responseFeePerOperator","type":"uint256","indexed":false,"internalType":"uint256"}],"anonymous":false},{"type":"event","name":"ResponseFinalized","inputs":[{"name":"requestIndex","type":"uint256","indexed":true,"internalType":"uint256"},{"name":"finalizedResultHash","type":"bytes32","indexed":true,"internalType":"bytes32"}],"anonymous":false},{"type":"event","name":"ResponseWindowBlocksSet","inputs":[{"name":"responseWindowBlocks","type":"uint256","indexed":false,"internalType":"uint256"}],"anonymous":false},{"type":"error","name":"InvalidPermissions","inputs":[]},{"type":"error","name":"InvalidRequest","inputs":[]},{"type":"error","name":"InvalidRequestIndex","inputs":[]},{"type":"error","name":"MaxRequestsPerReservationExceeded","inputs":[]},{"type":"error","name":"OperatorAlreadyResponded","inputs":[]},{"type":"error","name":"OperatorHasNotResponded","inputs":[]},{"type":"error","name":"OperatorNotRegistered","inputs":[]},{"type":"error","name":"RequestNotPending","inputs":[]},{"type":"error","name":"ResponseDeadlineNotPassed","inputs":[]},{"type":"error","name":"ResponseDeadlinePassed","inputs":[]},{"type":"error","name":"TimestampBeforeGenesis","inputs":[]}],"bytecode":{"object":"0x610140346101f157601f61219438819003918201601f19168301916001600160401b038311848410176101f55780849260c0946040528339810103126101f1578051906001600160a01b03821682036101f1576020810151906001600160a01b03821682036101f15760408101516001600160a01b03811681036101f1576060820151926001600160a01b03841684036101f1576080830151926001600160a01b03841684036101f15760a00151946001600160a01b03861686036101f15760805260a05260e052610100526101205260c0525f5460ff8160081c1661019c5760ff80821603610162575b604051611f8a908161020a82396080518181816114a60152611c01015260a0518181816102560152611030015260c0518181816106420152611638015260e051818181610a730152610ed001526101005181818161038e01528181610bdf01526112a601526101205181818161107401526118890152f35b60ff90811916175f557f7f26b83ff96e1f2b6a682f133852f6798a09c465da95921460cefb3847402498602060405160ff8152a15f6100ea565b60405162461bcd60e51b815260206004820152602760248201527f496e697469616c697a61626c653a20636f6e747261637420697320696e697469604482015266616c697a696e6760c81b6064820152608490fd5b5f80fd5b634e487b7160e01b5f52604160045260245ffdfe60806040526004361015610011575f80fd5b5f3560e01c8063136e4267146116675780633013ce29146116235780633a167a8d146115215780633fad1834146115045780634234d4e9146114d55780634657e26a146114915780634a6c77d6146114455780634ec81af1146112f2578063549a667f146112d557806368304835146112915780637131aa7814611234578063715018a6146111d957806377678f5814611179578063785ffb371461115657806386e2c025146111395780638da5cb5b146111115780638f818a5c146110c5578063918f8674146110a35780639e9923c21461105f578063b40308e51461101b578063c58343ef14610eff578063cf1d6b4214610ebb578063cf3096fd14610995578063d8a4676f14610946578063da6add3e146108fa578063e2cf8702146108dd578063eeb1aeff146101e05763f2fde38b1461014d575f80fd5b346101dc5760203660031901126101dc576101666116c2565b61016e611ab8565b6001600160a01b038116156101885761018690611b70565b005b60405162461bcd60e51b815260206004820152602660248201527f4f776e61626c653a206e6577206f776e657220697320746865207a65726f206160448201526564647265737360d01b6064820152608490fd5b5f80fd5b346101dc5760803660031901126101dc576101f96116d8565b60243567ffffffffffffffff81116101dc576102199036906004016116eb565b60643567ffffffffffffffff81116101dc576102399036906004016116eb565b604051637076833760e01b815263ffffffff8616600482015290947f00000000000000000000000000000000000000000000000000000000000000006001600160a01b0316949293919290602084602481895afa9384156107a1575f946108a9575b5060405163d57763c360e01b8152600481018590529060a0826024818a5afa9182156107a1575f92610804575b5081516102dd906001600160a01b0316611bb8565b156107f557604051638592953560e01b815263ffffffff821660048201526020816024818b5afa9081156107a1575f916107bb575b50156107ac5760049560206068549860405198898092631e90bbff60e11b82525afa9687156107a1575f9761076d575b506040968751906103538983611752565b6001825260208201601f198a01368237825115610759575f905388516340e03a8160e11b815263ffffffff82166004820152602481018a90527f00000000000000000000000000000000000000000000000000000000000000006001600160a01b0316925f90829081906103cb906044830190611d25565b0381865afa90811561074f576103f060209263ffffffff925f9161072d575b50611c6b565b511660648b5180958193636414a62b60e11b83525f600484015263ffffffff8716602484015260448301525afa918215610723576001600160601b038c87948a9796948d8b955f936106ee575b5063ffffffff929361047d61046d610456868616611860565b9b516001600160a01b03169d909b9936919061195f565b602081519101209136908a61195f565b602081519101209180519b6104918d611735565b8c52848b1660208d01528b015260443560608b015260808a015281431660a08a01521660c08801521660e08601525f6101008601526101208501526001610140850152600160401b8a10156106da5760018a016068556104f08a611719565b9490946106c7576101409060018060a01b038151166001600160601b0360a01b875416178655602081015186549063ffffffff60a01b9060a01b169063ffffffff60a01b19161786558a810151600187015560608101516002870155608081015160038701556004860163ffffffff60a0830151168c82549173ffffffffffffffffffffffff000000000000000067ffffffff0000000060c087015160201b169260e0870151901b16926001600160601b0360a01b1617171790556101008101516005870155610120810151600687015501519a60048c10156106b3576106898b977ff807a093975c038b49e4ab9663c3baf69bdf9cb192368dd0ca450b8abcaca4709761066660209f968e61061161069e99600763ffffffff9d0161191e565b51906323b872dd60e01b6020830152336024830152306044830152606482015260648152610640608482611752565b7f0000000000000000000000000000000000000000000000000000000000000000611d49565b60018060a01b03905116998c5197889716875260a08f88015260a0870191611995565b916044358b8601528483036060860152611995565b63ffffffff431660808301520390a451908152f35b634e487b7160e01b5f52602160045260245ffd5b634e487b7160e01b5f525f60045260245ffd5b634e487b7160e01b5f52604160045260245ffd5b63ffffffff93506107169060203d60201161071c575b61070e8183611752565b810190611d06565b9261043d565b503d610704565b89513d5f823e3d90fd5b61074991503d805f833e6107418183611752565b810190611c78565b8f6103ea565b8a513d5f823e3d90fd5b634e487b7160e01b5f52603260045260245ffd5b9096506020813d602011610799575b8161078960209383611752565b810103126101dc57519589610342565b3d915061077c565b6040513d5f823e3d90fd5b6341abc80160e01b5f5260045ffd5b90506020813d6020116107ed575b816107d660209383611752565b810103126101dc576107e790611936565b89610312565b3d91506107c9565b63932d94f760e01b5f5260045ffd5b90915060a0813d60a0116108a1575b8161082060a09383611752565b810103126101dc576040519060a0820182811067ffffffffffffffff8211176106da5760405280516001600160a01b03811681036101dc578252602081015160028110156101dc576108959160809160208501526040810151604085015261088a6060820161181b565b606085015201611936565b608082015290886102c8565b3d9150610813565b9093506020813d6020116108d5575b816108c560209383611752565b810103126101dc5751928761029b565b3d91506108b8565b346101dc575f3660031901126101dc576020606754604051908152f35b346101dc5760203660031901126101dc577fb4e625d55969e58af9b1f7a00598744592cfa65d45ced387d667a12c094a0e4a6020600435610939611ab8565b80606755604051908152a1005b346101dc5760203660031901126101dc576004356068548110156109865760ff6007610973602093611719565b50015416610984604051809261169f565bf35b63724950b960e01b5f5260045ffd5b346101dc5760803660031901126101dc576109ae6116c2565b6044359060243560643567ffffffffffffffff81116101dc576109d59036906004016116eb565b50506109e082611bb8565b156107f557606854811015610986576109f881611719565b50600781019060ff82541660048110156106b357600103610eac57600481015463ffffffff8116610a2b6067548261182c565b4311610e9d57604091825191610a418484611752565b600183526020830190601f19850136833784516309aa152760e11b81526001600160a01b03998a1660048201819052997f0000000000000000000000000000000000000000000000000000000000000000169490602081602481895afa908115610e93575f91610e61575b50610ab682611c6b565b52855180936361c8a12f60e11b82526044820184600484015288602484015283518091526064830191905f5b818110610e485750505090805f920381885afa928315610e3e575f93610e14575b50610b1c610b1563ffffffff92611c6b565b5193611c6b565b5116908551926304ec635160e01b8452600484015260248301526044820152602081606481865afa908115610e0a575f91610dc7575b50600180911603610db857855f526069602052610b7f87845f206001915f520160205260405f2054151590565b610da95760206024928451938480926309aa152760e11b82528b60048301525afa918215610d9f575f92610d67575b50825163fa28c62760e01b815260048101929092525f6024830152602090811c63ffffffff166044830152816064817f00000000000000000000000000000000000000000000000000000000000000006001600160a01b03165afa908115610d5d57906001600160601b03915f91610d3e575b501690845f526069602052610c4786825f20815f526002810160205289845f2055611e60565b50845f52606a602052805f20875f52602052805f20610c6783825461182c565b9055845f52606a60205286815f20600585019081545f52602052825f2054875f52606a602052835f20835f52602052835f205411610d36575b5050610cb485610caf85611774565b6119b5565b509360048510156106b3576006602094610d1e9260027f3b024683c7bbd4d483156538b437eb9e29bebb66c460c6daee52b5bed4fbf1759814610d25575b50015482519063a9059cbb60e01b86830152886024830152604482015260448152610640606482611752565b51908152a4005b805460ff191660021790558a610cf2565b558688610ca0565b610d57915060203d60201161071c5761070e8183611752565b88610c21565b82513d5f823e3d90fd5b9091506020813d602011610d97575b81610d8360209383611752565b810103126101dc57519063ffffffff610bae565b3d9150610d76565b83513d5f823e3d90fd5b633c1be2dd60e11b5f5260045ffd5b6325ec6c1f60e01b5f5260045ffd5b90506020813d602011610e02575b81610de260209383611752565b810103126101dc57516001600160c01b03811681036101dc576001610b52565b3d9150610dd5565b84513d5f823e3d90fd5b63ffffffff919350610b15610e35610b1c923d805f833e6107418183611752565b94925050610b03565b86513d5f823e3d90fd5b8251845287945060209384019390920191600101610ae2565b90506020813d602011610e8b575b81610e7c60209383611752565b810103126101dc57518c610aac565b3d9150610e6f565b87513d5f823e3d90fd5b6337735b7960e21b5f5260045ffd5b63f41814a760e01b5f5260045ffd5b346101dc575f3660031901126101dc576040517f00000000000000000000000000000000000000000000000000000000000000006001600160a01b03168152602090f35b346101dc5760203660031901126101dc576004355f610140604051610f2381611735565b8281528260208201528260408201528260608201528260808201528260a08201528260c08201528260e08201528261010082015282610120820152015260685481101561098657610f7f610f7961016092611719565b50611774565b6109846101406040519260018060a01b03815116845263ffffffff602082015116602085015260408101516040850152606081015160608501526080810151608085015263ffffffff60a08201511660a085015263ffffffff60c08201511660c08501526001600160601b0360e08201511660e0850152610100810151610100850152610120810151610120850152015161014083019061169f565b346101dc575f3660031901126101dc576040517f00000000000000000000000000000000000000000000000000000000000000006001600160a01b03168152602090f35b346101dc575f3660031901126101dc576040517f00000000000000000000000000000000000000000000000000000000000000006001600160a01b03168152602090f35b346101dc575f3660031901126101dc576020604051670de0b6b3a76400008152f35b346101dc5760203660031901126101dc577fe788b181eb4e95cc7efb62713edb68b8aff81f25e8f8a3d9cd2e0aa3afd867746020600435611104611ab8565b80606655604051908152a1005b346101dc575f3660031901126101dc576033546040516001600160a01b039091168152602090f35b346101dc575f3660031901126101dc576020606554604051908152f35b346101dc575f3660031901126101dc5760206706f05b59d3b20000604051908152f35b346101dc5760203660031901126101dc57600435606854811015610986578060056111b36111a8604094611719565b5092610caf84611774565b91836111c48360078695970161191e565b01556111d28351809361169f565b6020820152f35b346101dc575f3660031901126101dc576111f1611ab8565b603380546001600160a01b031981169091555f906001600160a01b03167f8be0079c531659141344cd1fd0a4f28419497f9722a3daafe3b4186f6b6457e08280a3005b346101dc5760403660031901126101dc576004356112506116ac565b9060685481101561098657602091611287915f526069835260018060a01b031660405f206001915f520160205260405f2054151590565b6040519015158152f35b346101dc575f3660031901126101dc576040517f00000000000000000000000000000000000000000000000000000000000000006001600160a01b03168152602090f35b346101dc575f3660031901126101dc576020606654604051908152f35b346101dc5760803660031901126101dc5761130b6116c2565b5f5460ff8160081c161591828093611438575b8015611421575b156113c55760ff1982166001175f5561137891836113b4575b5061135860ff5f5460081c1661135381611b10565b611b10565b61136133611b70565b602435606555604435606655606435606755611b70565b61137e57005b61ff00195f54165f557f7f26b83ff96e1f2b6a682f133852f6798a09c465da95921460cefb3847402498602060405160018152a1005b61ffff1916610101175f558361133e565b60405162461bcd60e51b815260206004820152602e60248201527f496e697469616c697a61626c653a20636f6e747261637420697320616c72656160448201526d191e481a5b9a5d1a585b1a5e995960921b6064820152608490fd5b50303b1580156113255750600160ff831614611325565b50600160ff83161061131e565b346101dc5760203660031901126101dc577f94cceca12fe215d18639d658bf49c3066e3adb70cc2eb91eb550e21665ce8fbd6020600435611484611ab8565b80606555604051908152a1005b346101dc575f3660031901126101dc576040517f00000000000000000000000000000000000000000000000000000000000000006001600160a01b03168152602090f35b346101dc5760203660031901126101dc5760406114f86114f36116d8565b611860565b82519182526020820152f35b346101dc575f3660031901126101dc576020606854604051908152f35b346101dc5760403660031901126101dc5760043561153d6116ac565b6068548210156109865760018060a01b031690805f5260696020526115738260405f206001915f520160205260405f2054151590565b15611614575f52606960205260405f20815f526002810160205260405f2054918215918215926115f5575b5050156115b057602090604051908152f35b60405162461bcd60e51b815260206004820152601e60248201527f456e756d657261626c654d61703a206e6f6e6578697374656e74206b657900006044820152606490fd5b61160d92506001915f520160205260405f2054151590565b828061159e565b634aaa09eb60e01b5f5260045ffd5b346101dc575f3660031901126101dc576040517f00000000000000000000000000000000000000000000000000000000000000006001600160a01b03168152602090f35b346101dc5760203660031901126101dc576004356068548110156109865761169781610caf610f79604094611719565b6111d2835180935b9060048210156106b35752565b602435906001600160a01b03821682036101dc57565b600435906001600160a01b03821682036101dc57565b6004359063ffffffff821682036101dc57565b9181601f840112156101dc5782359167ffffffffffffffff83116101dc57602083818601950101116101dc57565b6068548110156107595760685f5260205f209060031b01905f90565b610160810190811067ffffffffffffffff8211176106da57604052565b90601f8019910116810190811067ffffffffffffffff8211176106da57604052565b9060405161178181611735565b60ff6007829463ffffffff815460018060a01b038116865260a01c1660208501526001810154604085015260028101546060850152600381015460808501526001600160601b03600482015463ffffffff811660a087015263ffffffff8160201c1660c087015260401c1660e0850152600581015461010085015260068101546101208501520154169060048210156106b3576101400152565b519063ffffffff821682036101dc57565b9190820180921161183957565b634e487b7160e01b5f52601160045260245ffd5b8181029291811591840414171561183957565b604051633dae935f60e11b81525f600482015263ffffffff9190911660248201526020816044817f00000000000000000000000000000000000000000000000000000000000000006001600160a01b03165afa9081156107a1575f916118e4575b506118e163ffffffff6118d96065546066549061182c565b92168261184d565b91565b90506020813d602011611916575b816118ff60209383611752565b810103126101dc576119109061181b565b5f6118c1565b3d91506118f2565b9060048110156106b35760ff80198354169116179055565b519081151582036101dc57565b67ffffffffffffffff81116106da57601f01601f191660200190565b92919261196b82611943565b916119796040519384611752565b8294818452818301116101dc578281602093845f960137010152565b908060209392818452848401375f828201840152601f01601f1916010190565b9190610140830190815160048110156106b357156107ac57815160048110156106b3576002148015611aa4575b611a90575f52606a60205260405f209261010081019384515f5260205260405f2054670de0b6b3a7640000810290808204670de0b6b3a76400001490151715611839576001600160601b0360e083015116906706f05b59d3b20000918281029281840414901517156118395711611a875760a00151606754611a699163ffffffff1661182c565b4311611a7e57519160048310156106b3575190565b50600391505f90565b50509051600291565b50519160048310156106b357610100015190565b50815160048110156106b3576003146119e2565b6033546001600160a01b03163303611acc57565b606460405162461bcd60e51b815260206004820152602060248201527f4f776e61626c653a2063616c6c6572206973206e6f7420746865206f776e65726044820152fd5b15611b1757565b60405162461bcd60e51b815260206004820152602b60248201527f496e697469616c697a61626c653a20636f6e7472616374206973206e6f74206960448201526a6e697469616c697a696e6760a81b6064820152608490fd5b603380546001600160a01b039283166001600160a01b0319821681179092559091167f8be0079c531659141344cd1fd0a4f28419497f9722a3daafe3b4186f6b6457e05f80a3565b604051631beb2b9760e31b81526001600160a01b0391821660048201523360248201523060448201525f80356001600160e01b03191660648301529091602091839160849183917f0000000000000000000000000000000000000000000000000000000000000000165af19081156107a1575f91611c34575090565b90506020813d602011611c63575b81611c4f60209383611752565b810103126101dc57611c6090611936565b90565b3d9150611c42565b8051156107595760200190565b6020818303126101dc5780519067ffffffffffffffff82116101dc57019080601f830112156101dc5781519167ffffffffffffffff83116106da578260051b906020820193611cca6040519586611752565b84526020808501928201019283116101dc57602001905b828210611cee5750505090565b60208091611cfb8461181b565b815201910190611ce1565b908160209103126101dc57516001600160601b03811681036101dc5790565b805180835260209291819084018484015e5f828201840152601f01601f1916010190565b90611dc89160018060a01b03165f8060405193611d67604086611752565b602085527f5361666545524332303a206c6f772d6c6576656c2063616c6c206661696c6564602086015260208151910182855af13d15611e58573d91611dac83611943565b92611dba6040519485611752565b83523d5f602085013e611eb7565b8051908115918215611e36575b505015611dde57565b60405162461bcd60e51b815260206004820152602a60248201527f5361666545524332303a204552433230206f7065726174696f6e20646964206e6044820152691bdd081cdd58d8d9595960b21b6064820152608490fd5b81925090602091810103126101dc576020611e519101611936565b5f80611dd5565b606091611eb7565b5f828152600182016020526040902054611eb157805490600160401b8210156106da57600182018082558210156107595782600192825f5260205f2001558054925f520160205260405f2055600190565b50505f90565b91929015611f195750815115611ecb575090565b3b15611ed45790565b60405162461bcd60e51b815260206004820152601d60248201527f416464726573733a2063616c6c20746f206e6f6e2d636f6e74726163740000006044820152606490fd5b825190915015611f2c5750805190602001fd5b60405162461bcd60e51b815260206004820152908190611f50906024830190611d25565b0390fdfea2646970667358221220102e321c2ba9aab6aa9709b52997f3f0f952a187d3ac22bc3881a4e3a363e81764736f6c634300081b0033","linkReferences":{}},"methodIdentifiers":{"DENOMINATOR()":"918f8674","THRESHOLD()":"785ffb37","getFinalizedResponse(uint256)":"77678f58","getFinalizedResponseView(uint256)":"136e4267","getRequest(uint256)":"c58343ef","getRequestCount()":"3fad1834","getRequestFee(uint32)":"4234d4e9","getRequestStatus(uint256)":"d8a4676f","getResultHash(uint256,address)":"3a167a8d","hasOperatorResponded(uint256,address)":"7131aa78","indexRegistry()":"9e9923c2","initialize(address,uint256,uint256,uint256)":"4ec81af1","owner()":"8da5cb5b","paymentToken()":"3013ce29","permissionController()":"4657e26a","reexecutionFeePerOperator()":"549a667f","renounceOwnership()":"715018a6","requestReexecution(uint32,bytes,bytes32,bytes)":"eeb1aeff","reservationRegistry()":"b40308e5","respond(address,uint256,bytes32,bytes)":"cf3096fd","responseFeePerOperator()":"86e2c025","responseWindowBlocks()":"e2cf8702","setReexecutionFeePerOperator(uint256)":"8f818a5c","setResponseFeePerOperator(uint256)":"4a6c77d6","setResponseWindowBlocks(uint256)":"da6add3e","slashingRegistryCoordinator()":"cf1d6b42","stakeRegistry()":"68304835","transferOwnership(address)":"f2fde38b"},"id":156}